{
  "_format": "hh-sol-artifact-1",
  "contractName": "dataStorage",
  "sourceName": "contracts/Storage.sol",
  "abi": [
    {
      "inputs": [],
      "name": "getData",
      "outputs": [
        {
          "internalType": "string",
          "name": "",
          "type": "string[]"
        }
      ],
      "stateMutability": "view",
      "type": "function"
    },
    {
      "inputs": [],
      "name": "name",
      "outputs": [
        {
          "internalType": "string",
          "name": "",
          "type": "string"
        }
      ],
      "stateMutability": "view",
      "type": "function"
    },
    {
      "inputs": [
        {
          "internalType": "string",
          "name": "_name",
          "type": "string"
        }
      ],
      "name": "setData",
      "outputs": [],
      "stateMutability": "nonpayable",
      "type": "function"
    }
  ],
  "bytecode": "0x60806040526040518060400160405280600b81526020017f68656c6c6f20776f726c64000000000000000000000000000000000000000000815250600090816200004a9190620002d9565b503480156200005857600080fd5b50620003c0565b600081519050919050565b7f4e487b7100000000000000000000000000000000000000000000000000000000600052604160045260246000fd5b7f4e487b7100000000000000000000000000000000000000000000000000000000600052602260045260246000fd5b60006002820490506001821680620000e157607f821691505b602082108103620000f757620000f662000099565b5b50919050565b60008190508160005260206000209050919050565b60006020601f8301049050919050565b600082821b905092915050565b600060088302620001617fffffffffffffffffffffffffffffffffffffffffffffffffffffffffffffffff8262000122565b6200016d868362000122565b95508019841693508086168417925050509392505050565b6000819050919050565b6000819050919050565b6000620001ba620001b4620001ae8462000185565b6200018f565b62000185565b9050919050565b6000819050919050565b620001d68362000199565b620001ee620001e582620001c1565b8484546200012f565b825550505050565b600090565b62000205620001f6565b62000212818484620001cb565b505050565b5b818110156200023a576200022e600082620001fb565b60018101905062000218565b5050565b601f82111562000289576200025381620000fd565b6200025e8462000112565b810160208510156200026e578190505b620002866200027d8562000112565b83018262000217565b50505b505050565b600082821c905092915050565b6000620002ae600019846008026200028e565b1980831691505092915050565b6000620002c983836200029b565b9150826002028217905092915050565b620002e4826200005f565b67ffffffffffffffff8111156200030057620002ff6200006a565b5b6200030c8254620000c8565b620003198282856200023e565b600060209050601f8311600181146200035157600084156200033c578287015190505b620003488582620002bb565b865550620003b8565b601f1984166200036186620000fd565b60005b828110156200038b5784890151825560018201915060208501945060208101905062000364565b86831015620003ab5784890151620003a7601f8916826200029b565b8355505b6001600288020188555050505b505050505050565b61073380620003d06000396000f3fe608060405234801561001057600080fd5b50600436106100415760003560e01c806306fdde03146100465780633bc5de301461006457806347064d6a14610082575b600080fd5b61004e61009e565b60405161005b9190610261565b60405180910390f35b61006c61012c565b6040516100799190610261565b60405180910390f35b61009c600480360381019061009791906103cc565b6101be565b005b600080546100ab90610444565b80601f01602080910402602001604051908101604052809291908181526020018280546100d790610444565b80156101245780601f106100f957610100808354040283529160200191610124565b820191906000526020600020905b81548152906001019060200180831161010757829003601f168201915b505050505081565b60606000805461013b90610444565b80601f016020809104026020016040519081016040528092919081815260200182805461016790610444565b80156101b45780601f10610189576101008083540402835291602001916101b4565b820191906000526020600020905b81548152906001019060200180831161019757829003601f168201915b5050505050905090565b80600090816101cd919061062b565b5050565b600081519050919050565b600082825260208201905092915050565b60005b8381101561020b5780820151818401526020810190506101f0565b60008484015250505050565b6000601f19601f8301169050919050565b6000610233826101d1565b61023d81856101dc565b935061024d8185602086016101ed565b61025681610217565b840191505092915050565b6000602082019050818103600083015261027b8184610228565b905092915050565b6000604051905090565b600080fd5b600080fd5b600080fd5b600080fd5b7f4e487b7100000000000000000000000000000000000000000000000000000000600052604160045260246000fd5b6102d982610217565b810181811067ffffffffffffffff821117156102f8576102f76102a1565b5b80604052505050565b600061030b610283565b905061031782826102d0565b919050565b600067ffffffffffffffff821115610337576103366102a1565b5b61034082610217565b9050602081019050919050565b82818337600083830152505050565b600061036f61036a8461031c565b610301565b90508281526020810184848401111561038b5761038a61029c565b5b61039684828561034d565b509392505050565b600082601f8301126103b3576103b2610297565b5b81356103c384826020860161035c565b91505092915050565b6000602082840312156103e2576103e161028d565b5b600082013567ffffffffffffffff811115610400576103ff610292565b5b61040c8482850161039e565b91505092915050565b7f4e487b7100000000000000000000000000000000000000000000000000000000600052602260045260246000fd5b6000600282049050600182168061045c57607f821691505b60208210810361046f5761046e610415565b5b50919050565b60008190508160005260206000209050919050565b60006020601f8301049050919050565b600082821b905092915050565b6000600883026104d77fffffffffffffffffffffffffffffffffffffffffffffffffffffffffffffffff8261049a565b6104e1868361049a565b95508019841693508086168417925050509392505050565b6000819050919050565b6000819050919050565b600061052861052361051e846104f9565b610503565b6104f9565b9050919050565b6000819050919050565b6105428361050d565b61055661054e8261052f565b8484546104a7565b825550505050565b600090565b61056b61055e565b610576818484610539565b505050565b5b8181101561059a5761058f600082610563565b60018101905061057c565b5050565b601f8211156105df576105b081610475565b6105b98461048a565b810160208510156105c8578190505b6105dc6105d48561048a565b83018261057b565b50505b505050565b600082821c905092915050565b6000610602600019846008026105e4565b1980831691505092915050565b600061061b83836105f1565b9150826002028217905092915050565b610634826101d1565b67ffffffffffffffff81111561064d5761064c6102a1565b5b6106578254610444565b61066282828561059e565b600060209050601f8311600181146106955760008415610683578287015190505b61068d858261060f565b8655506106f5565b601f1984166106a386610475565b60005b828110156106cb578489015182556001820191506020850194506020810190506106a6565b868310156106e857848901516106e4601f8916826105f1565b8355505b6001600288020188555050505b50505050505056fea2646970667358221220f1e132a2548124fbf936c331294de9cc02164c38dda19b3135a50d9dbd47e21164736f6c63430008110033",
  "linkReferences": {},
  "deployedLinkReferences": {}
}